{
  "contractName": "Store",
  "abi": [
    {
      "anonymous": false,
      "inputs": [
        {
          "indexed": false,
          "internalType": "string",
          "name": "key",
          "type": "string"
        },
        {
          "indexed": false,
          "internalType": "string",
          "name": "value",
          "type": "string"
        }
      ],
      "name": "ItemSet",
      "type": "event"
    },
    {
      "inputs": [
        {
          "internalType": "string",
          "name": "",
          "type": "string"
        }
      ],
      "name": "items",
      "outputs": [
        {
          "internalType": "string",
          "name": "",
          "type": "string"
        }
      ],
      "stateMutability": "view",
      "type": "function",
      "constant": true
    },
    {
      "inputs": [
        {
          "internalType": "string",
          "name": "key",
          "type": "string"
        },
        {
          "internalType": "string",
          "name": "value",
          "type": "string"
        }
      ],
      "name": "setItem",
      "outputs": [],
      "stateMutability": "nonpayable",
      "type": "function"
    }
  ],
  "bytecode": "0x608060405234801561001057600080fd5b50610636806100206000396000f3fe608060405234801561001057600080fd5b50600436106100365760003560e01c80634909b29b1461003b5780637a4c982e1461006b575b600080fd5b610055600480360381019061005091906103aa565b610087565b604051610062919061047b565b60405180910390f35b6100856004803603810190610080919061049d565b61013d565b005b60008180516020810182018051848252602083016020850120818352809550505050505060009150905080546100bc90610544565b80601f01602080910402602001604051908101604052809291908181526020018280546100e890610544565b80156101355780601f1061010a57610100808354040283529160200191610135565b820191906000526020600020905b81548152906001019060200180831161011857829003601f168201915b505050505081565b8060008360405161014e91906105b2565b9081526020016040518091039020908051906020019061016f9291906101ad565b507f523139e7aa4a7267d8d1b859cba73a73993683d42bc00a7a06770e7b6ca57ef382826040516101a19291906105c9565b60405180910390a15050565b8280546101b990610544565b90600052602060002090601f0160209004810192826101db5760008555610222565b82601f106101f457805160ff1916838001178555610222565b82800160010185558215610222579182015b82811115610221578251825591602001919060010190610206565b5b50905061022f9190610233565b5090565b5b8082111561024c576000816000905550600101610234565b5090565b6000604051905090565b600080fd5b600080fd5b600080fd5b600080fd5b6000601f19601f8301169050919050565b7f4e487b7100000000000000000000000000000000000000000000000000000000600052604160045260246000fd5b6102b78261026e565b810181811067ffffffffffffffff821117156102d6576102d561027f565b5b80604052505050565b60006102e9610250565b90506102f582826102ae565b919050565b600067ffffffffffffffff8211156103155761031461027f565b5b61031e8261026e565b9050602081019050919050565b82818337600083830152505050565b600061034d610348846102fa565b6102df565b90508281526020810184848401111561036957610368610269565b5b61037484828561032b565b509392505050565b600082601f83011261039157610390610264565b5b81356103a184826020860161033a565b91505092915050565b6000602082840312156103c0576103bf61025a565b5b600082013567ffffffffffffffff8111156103de576103dd61025f565b5b6103ea8482850161037c565b91505092915050565b600081519050919050565b600082825260208201905092915050565b60005b8381101561042d578082015181840152602081019050610412565b8381111561043c576000848401525b50505050565b600061044d826103f3565b61045781856103fe565b935061046781856020860161040f565b6104708161026e565b840191505092915050565b600060208201905081810360008301526104958184610442565b905092915050565b600080604083850312156104b4576104b361025a565b5b600083013567ffffffffffffffff8111156104d2576104d161025f565b5b6104de8582860161037c565b925050602083013567ffffffffffffffff8111156104ff576104fe61025f565b5b61050b8582860161037c565b9150509250929050565b7f4e487b7100000000000000000000000000000000000000000000000000000000600052602260045260246000fd5b6000600282049050600182168061055c57607f821691505b602082108114156105705761056f610515565b5b50919050565b600081905092915050565b600061058c826103f3565b6105968185610576565b93506105a681856020860161040f565b80840191505092915050565b60006105be8284610581565b915081905092915050565b600060408201905081810360008301526105e38185610442565b905081810360208301526105f78184610442565b9050939250505056fea2646970667358221220deab301bcf6ffbc373dceeb16c41bea4f7e112618162afb1beac4969001c83a064736f6c634300080b0033",
  "immutableReferences": {},
  "source": "pragma solidity ^0.8.7;\n\ncontract Store {\n  event ItemSet(string key, string value);\n\n  mapping (string => string) public items;\n\n  function setItem(string memory key, string memory value) external {\n    items[key] = value;\n    emit ItemSet(key, value);\n  }\n}\n",
  "sourcePath": "/home/dolphin/Code/TradingLab/Contracts/contracts/Store.sol",
  "compiler": {
    "name": "solc",
    "version": "0.8.11+commit.d7f03943.Emscripten.clang"
  },
  "schemaVersion": "3.4.4",
  "updatedAt": "2021-12-27T14:23:12.674Z",
  "networkType": "ethereum",
  "devdoc": {
    "kind": "dev",
    "methods": {},
    "version": 1
  },
  "userdoc": {
    "kind": "user",
    "methods": {},
    "version": 1
  }
}