{
  "contractName": "SubscriptionModel",
  "abi": [
    {
      "anonymous": false,
      "inputs": [
        {
          "indexed": false,
          "internalType": "address",
          "name": "sender",
          "type": "address"
        },
        {
          "indexed": false,
          "internalType": "uint256",
          "name": "value",
          "type": "uint256"
        }
      ],
      "name": "ChangePlan",
      "type": "event"
    },
    {
      "anonymous": false,
      "inputs": [
        {
          "indexed": false,
          "internalType": "address",
          "name": "sender",
          "type": "address"
        },
        {
          "indexed": false,
          "internalType": "address",
          "name": "to",
          "type": "address"
        },
        {
          "indexed": false,
          "internalType": "uint256",
          "name": "createdat",
          "type": "uint256"
        },
        {
          "indexed": false,
          "internalType": "uint256",
          "name": "endedat",
          "type": "uint256"
        },
        {
          "indexed": false,
          "internalType": "uint256",
          "name": "amount",
          "type": "uint256"
        }
      ],
      "name": "Subscribe",
      "type": "event"
    },
    {
      "inputs": [
        {
          "internalType": "address",
          "name": "",
          "type": "address"
        }
      ],
      "name": "plans",
      "outputs": [
        {
          "internalType": "uint256",
          "name": "",
          "type": "uint256"
        }
      ],
      "stateMutability": "view",
      "type": "function",
      "constant": true
    },
    {
      "inputs": [
        {
          "internalType": "address",
          "name": "",
          "type": "address"
        },
        {
          "internalType": "address",
          "name": "",
          "type": "address"
        }
      ],
      "name": "subscriptions",
      "outputs": [
        {
          "internalType": "uint256",
          "name": "Createdat",
          "type": "uint256"
        },
        {
          "internalType": "uint256",
          "name": "Endedat",
          "type": "uint256"
        },
        {
          "internalType": "uint256",
          "name": "Amount",
          "type": "uint256"
        }
      ],
      "stateMutability": "view",
      "type": "function",
      "constant": true
    },
    {
      "inputs": [
        {
          "internalType": "uint256",
          "name": "usdc_monthly_price",
          "type": "uint256"
        }
      ],
      "name": "changePlan",
      "outputs": [],
      "stateMutability": "nonpayable",
      "type": "function"
    },
    {
      "inputs": [
        {
          "internalType": "address",
          "name": "to",
          "type": "address"
        }
      ],
      "name": "subscribe",
      "outputs": [],
      "stateMutability": "nonpayable",
      "type": "function"
    },
    {
      "inputs": [],
      "name": "getPlan",
      "outputs": [
        {
          "internalType": "uint256",
          "name": "",
          "type": "uint256"
        }
      ],
      "stateMutability": "view",
      "type": "function",
      "constant": true
    },
    {
      "inputs": [
        {
          "internalType": "address",
          "name": "to",
          "type": "address"
        }
      ],
      "name": "isSubscriber",
      "outputs": [
        {
          "internalType": "bool",
          "name": "",
          "type": "bool"
        }
      ],
      "stateMutability": "view",
      "type": "function",
      "constant": true
    },
    {
      "inputs": [
        {
          "internalType": "address",
          "name": "to",
          "type": "address"
        }
      ],
      "name": "subscriptionEndedAt",
      "outputs": [
        {
          "internalType": "uint256",
          "name": "",
          "type": "uint256"
        }
      ],
      "stateMutability": "view",
      "type": "function",
      "constant": true
    }
  ],
  "bytecode": "0x608060405234801561001057600080fd5b50610881806100206000396000f3fe608060405234801561001057600080fd5b506004361061007d5760003560e01c806386d86d841161005b57806386d86d84146100ec578063af0686d21461011c578063c4804ef01461013a578063d503007c1461016a5761007d565b806305d567ca1461008257806341a7726a1461009e5780636207d31b146100ba575b600080fd5b61009c600480360381019061009791906105ac565b61019a565b005b6100b860048036038101906100b39190610637565b610219565b005b6100d460048036038101906100cf9190610664565b6103bd565b6040516100e3939291906106b3565b60405180910390f35b61010660048036038101906101019190610637565b6103f4565b60405161011391906106ea565b60405180910390f35b61012461040c565b60405161013191906106ea565b60405180910390f35b610154600480360381019061014f9190610637565b610452565b6040516101619190610720565b60405180910390f35b610184600480360381019061017f9190610637565b6104e8565b60405161019191906106ea565b60405180910390f35b806000803373ffffffffffffffffffffffffffffffffffffffff1673ffffffffffffffffffffffffffffffffffffffff168152602001908152602001600020819055507f7f9c6471d241fdd651ec01d49cde6243143db4bbf23aac6d0573bceb342e674e338260405161020e92919061074a565b60405180910390a150565b6000429050600062278d008261022f91906107a2565b90506000604051806060016040528084815260200162278d008561025391906107a2565b81526020016000808773ffffffffffffffffffffffffffffffffffffffff1673ffffffffffffffffffffffffffffffffffffffff16815260200190815260200160002054815250905080600160008673ffffffffffffffffffffffffffffffffffffffff1673ffffffffffffffffffffffffffffffffffffffff16815260200190815260200160002060003373ffffffffffffffffffffffffffffffffffffffff1673ffffffffffffffffffffffffffffffffffffffff1681526020019081526020016000206000820151816000015560208201518160010155604082015181600201559050507f5f14af16fb853f389721dd1056e8e5a771b7f2a461b5bbf2c2a8d194d2c3bf44338585856000808a73ffffffffffffffffffffffffffffffffffffffff1673ffffffffffffffffffffffffffffffffffffffff168152602001908152602001600020546040516103af9594939291906107f8565b60405180910390a150505050565b6001602052816000526040600020602052806000526040600020600091509150508060000154908060010154908060020154905083565b60006020528060005260406000206000915090505481565b60008060003373ffffffffffffffffffffffffffffffffffffffff1673ffffffffffffffffffffffffffffffffffffffff16815260200190815260200160002054905090565b6000804290506000600160008573ffffffffffffffffffffffffffffffffffffffff1673ffffffffffffffffffffffffffffffffffffffff16815260200190815260200160002060003373ffffffffffffffffffffffffffffffffffffffff1673ffffffffffffffffffffffffffffffffffffffff16815260200190815260200160002060010154905081811192505050919050565b6000600160008373ffffffffffffffffffffffffffffffffffffffff1673ffffffffffffffffffffffffffffffffffffffff16815260200190815260200160002060003373ffffffffffffffffffffffffffffffffffffffff1673ffffffffffffffffffffffffffffffffffffffff168152602001908152602001600020600101549050919050565b600080fd5b6000819050919050565b61058981610576565b811461059457600080fd5b50565b6000813590506105a681610580565b92915050565b6000602082840312156105c2576105c1610571565b5b60006105d084828501610597565b91505092915050565b600073ffffffffffffffffffffffffffffffffffffffff82169050919050565b6000610604826105d9565b9050919050565b610614816105f9565b811461061f57600080fd5b50565b6000813590506106318161060b565b92915050565b60006020828403121561064d5761064c610571565b5b600061065b84828501610622565b91505092915050565b6000806040838503121561067b5761067a610571565b5b600061068985828601610622565b925050602061069a85828601610622565b9150509250929050565b6106ad81610576565b82525050565b60006060820190506106c860008301866106a4565b6106d560208301856106a4565b6106e260408301846106a4565b949350505050565b60006020820190506106ff60008301846106a4565b92915050565b60008115159050919050565b61071a81610705565b82525050565b60006020820190506107356000830184610711565b92915050565b610744816105f9565b82525050565b600060408201905061075f600083018561073b565b61076c60208301846106a4565b9392505050565b7f4e487b7100000000000000000000000000000000000000000000000000000000600052601160045260246000fd5b60006107ad82610576565b91506107b883610576565b9250827fffffffffffffffffffffffffffffffffffffffffffffffffffffffffffffffff038211156107ed576107ec610773565b5b828201905092915050565b600060a08201905061080d600083018861073b565b61081a602083018761073b565b61082760408301866106a4565b61083460608301856106a4565b61084160808301846106a4565b969550505050505056fea264697066735822122037a684d862ae21976609cb6c7efae7fca5e35f7f9157f388614b5cefd03deeee64736f6c634300080b0033",
  "immutableReferences": {},
  "source": "//  Possibility to subscribe\n//   get latest price is USD/MOON\n//   At the beginning subscription only monthly\n//   Check is already subscribed? \n\n// Possibility to check if addressA is subscribed with addressB\n// Possibility to get list of all subscribers of a particular address\n\n// SPDX-License-Identifier: MIT\npragma solidity ^0.8.7;\n\ncontract SubscriptionModel {\n\n  // STRUCTS\n  struct Subscription {\n    uint Createdat;\n    uint Endedat;\n    uint Amount;\n  }\n\n  // VARIABLES\n  mapping (address => uint) public plans;\n  mapping (address => mapping (address => Subscription)) public subscriptions;\n\n  // EVENTS\n  event ChangePlan(\n    address sender,\n    uint value\n  );\n\n  event Subscribe(\n    address sender,\n    address to,\n    uint createdat,\n    uint endedat,\n    uint amount\n  );\n    \n  // TRANSACTIONS\n  function changePlan(uint usdc_monthly_price) public {\n    // require(\n    //   msg.sender.balance > 0,\n    //   \"Balance is not enough.\"\n    // );\n    // require(\n    //   usdc_monthly_price > 0, \n    //   \"USDC price must be bigger than 0.\"\n    // );\n    // require(\n    //   usdc_monthly_price != plans[msg.sender], \n    //   \"USDC price must be different than current one.\"\n    // );\n    plans[msg.sender] = usdc_monthly_price; \n    emit ChangePlan(\n      msg.sender,\n      usdc_monthly_price\n    );\n  }\n\n  function subscribe(address to) public {\n    uint currentTimestamp = block.timestamp;\n    // require(\n    //   plans[to] > 0,\n    //   \"Address is not accepting subscriptions.\"\n    // );\n    // require(\n    //   subscriptions[to][msg.sender].Endedat < currentTimestamp,\n    //   \"There is a running subscription\"\n    // );\n    uint endedat = currentTimestamp + (30 * 1 days);\n    Subscription memory subscription = Subscription({\n      Createdat: currentTimestamp,\n      Endedat: currentTimestamp + (30 * 1 days),\n      Amount: plans[to]\n    });\n    subscriptions[to][msg.sender] = subscription;\n    emit Subscribe(\n      msg.sender,\n      to,\n      currentTimestamp,\n      endedat,\n      plans[to]\n    );\n  }\n\n  // CALLS\n  function getPlan() public view returns (uint) {\n    return plans[msg.sender];\n  }\n\n  function isSubscriber(address to) public view returns(bool) {\n    uint currentTimestamp = block.timestamp;\n    uint endedat = subscriptions[to][msg.sender].Endedat;\n    return endedat > currentTimestamp;\n  }\n\n  function subscriptionEndedAt(address to) public view returns(uint) {\n    return subscriptions[to][msg.sender].Endedat;\n  }\n\n}\n",
  "sourcePath": "/home/dolphin/Code/TradingLab/Contracts/contracts/SubscriptionModel.sol",
  "compiler": {
    "name": "solc",
    "version": "0.8.11+commit.d7f03943.Emscripten.clang"
  },
  "schemaVersion": "3.4.4",
  "updatedAt": "2022-01-08T15:29:21.424Z",
  "networkType": "ethereum",
  "devdoc": {
    "kind": "dev",
    "methods": {},
    "version": 1
  },
  "userdoc": {
    "kind": "user",
    "methods": {},
    "version": 1
  }
}