{
  "contractName": "SubscriptionModel",
  "abi": [
    {
      "inputs": [
        {
          "internalType": "address",
          "name": "_subscriptionStorageAddress",
          "type": "address"
        },
        {
          "internalType": "address",
          "name": "_planStorageAddress",
          "type": "address"
        }
      ],
      "stateMutability": "nonpayable",
      "type": "constructor"
    },
    {
      "anonymous": false,
      "inputs": [
        {
          "indexed": false,
          "internalType": "address",
          "name": "sender",
          "type": "address"
        },
        {
          "indexed": false,
          "internalType": "uint256",
          "name": "value",
          "type": "uint256"
        }
      ],
      "name": "ChangePlan",
      "type": "event"
    },
    {
      "anonymous": false,
      "inputs": [
        {
          "indexed": false,
          "internalType": "address",
          "name": "sender",
          "type": "address"
        },
        {
          "indexed": false,
          "internalType": "address",
          "name": "to",
          "type": "address"
        },
        {
          "indexed": false,
          "internalType": "uint256",
          "name": "createdat",
          "type": "uint256"
        },
        {
          "indexed": false,
          "internalType": "uint256",
          "name": "_days",
          "type": "uint256"
        },
        {
          "indexed": false,
          "internalType": "uint256",
          "name": "amount",
          "type": "uint256"
        }
      ],
      "name": "Subscribe",
      "type": "event"
    },
    {
      "inputs": [
        {
          "internalType": "uint256",
          "name": "_price",
          "type": "uint256"
        }
      ],
      "name": "changePlan",
      "outputs": [],
      "stateMutability": "nonpayable",
      "type": "function"
    },
    {
      "inputs": [
        {
          "internalType": "address payable",
          "name": "_to",
          "type": "address"
        },
        {
          "internalType": "uint256",
          "name": "_days",
          "type": "uint256"
        }
      ],
      "name": "subscribe",
      "outputs": [],
      "stateMutability": "payable",
      "type": "function",
      "payable": true
    }
  ],
  "bytecode": "0x608060405260286000557371398cad63b47db2e2b00b68a709b64df98e5a29600160006101000a81548173ffffffffffffffffffffffffffffffffffffffff021916908373ffffffffffffffffffffffffffffffffffffffff160217905550600160009054906101000a900473ffffffffffffffffffffffffffffffffffffffff16600260006101000a81548173ffffffffffffffffffffffffffffffffffffffff021916908373ffffffffffffffffffffffffffffffffffffffff160217905550348015620000ce57600080fd5b506040516200109d3803806200109d8339818101604052810190620000f49190620001e8565b81600360006101000a81548173ffffffffffffffffffffffffffffffffffffffff021916908373ffffffffffffffffffffffffffffffffffffffff16021790555080600460006101000a81548173ffffffffffffffffffffffffffffffffffffffff021916908373ffffffffffffffffffffffffffffffffffffffff16021790555050506200022f565b600080fd5b600073ffffffffffffffffffffffffffffffffffffffff82169050919050565b6000620001b08262000183565b9050919050565b620001c281620001a3565b8114620001ce57600080fd5b50565b600081519050620001e281620001b7565b92915050565b600080604083850312156200020257620002016200017e565b5b60006200021285828601620001d1565b92505060206200022585828601620001d1565b9150509250929050565b610e5e806200023f6000396000f3fe6080604052600436106100295760003560e01c806305d567ca1461002e5780638de6928414610057575b600080fd5b34801561003a57600080fd5b506100556004803603810190610050919061067a565b610073565b005b610071600480360381019061006c9190610705565b6102b9565b005b60003373ffffffffffffffffffffffffffffffffffffffff1631116100cd576040517f08c379a00000000000000000000000000000000000000000000000000000000081526004016100c4906107a2565b60405180910390fd5b60008111610110576040517f08c379a000000000000000000000000000000000000000000000000000000000815260040161010790610834565b60405180910390fd5b600460009054906101000a900473ffffffffffffffffffffffffffffffffffffffff1673ffffffffffffffffffffffffffffffffffffffff1663dc42c074336040518263ffffffff1660e01b815260040161016b9190610875565b602060405180830381865afa158015610188573d6000803e3d6000fd5b505050506040513d601f19601f820116820180604052508101906101ac91906108a5565b8114156101ee576040517f08c379a00000000000000000000000000000000000000000000000000000000081526004016101e590610944565b60405180910390fd5b600460009054906101000a900473ffffffffffffffffffffffffffffffffffffffff1673ffffffffffffffffffffffffffffffffffffffff1663d822745c33836040518363ffffffff1660e01b815260040161024b929190610973565b600060405180830381600087803b15801561026557600080fd5b505af1158015610279573d6000803e3d6000fd5b505050507f7f9c6471d241fdd651ec01d49cde6243143db4bbf23aac6d0573bceb342e674e33826040516102ae929190610973565b60405180910390a150565b60004290506000600460009054906101000a900473ffffffffffffffffffffffffffffffffffffffff1673ffffffffffffffffffffffffffffffffffffffff1663dc42c074856040518263ffffffff1660e01b815260040161031b91906109fb565b602060405180830381865afa158015610338573d6000803e3d6000fd5b505050506040513d601f19601f8201168201806040525081019061035c91906108a5565b9050600081116103a1576040517f08c379a000000000000000000000000000000000000000000000000000000000815260040161039890610a88565b60405180910390fd5b81600360009054906101000a900473ffffffffffffffffffffffffffffffffffffffff1673ffffffffffffffffffffffffffffffffffffffff16635b75dd8d86336040518363ffffffff1660e01b81526004016103ff929190610aa8565b608060405180830381865afa15801561041c573d6000803e3d6000fd5b505050506040513d601f19601f820116820180604052508101906104409190610bda565b6040015110610484576040517f08c379a000000000000000000000000000000000000000000000000000000000815260040161047b90610c53565b60405180910390fd5b600360009054906101000a900473ffffffffffffffffffffffffffffffffffffffff1673ffffffffffffffffffffffffffffffffffffffff1663d5764858853384876040518563ffffffff1660e01b81526004016104e59493929190610c73565b600060405180830381600087803b1580156104ff57600080fd5b505af1158015610513573d6000803e3d6000fd5b505050507f5f14af16fb853f389721dd1056e8e5a771b7f2a461b5bbf2c2a8d194d2c3bf44338584868560405161054e959493929190610cb8565b60405180910390a1600060646028346105679190610d3a565b6105719190610dc3565b9050600260009054906101000a900473ffffffffffffffffffffffffffffffffffffffff1673ffffffffffffffffffffffffffffffffffffffff166108fc829081150290604051600060405180830381858888f193505050501580156105db573d6000803e3d6000fd5b508473ffffffffffffffffffffffffffffffffffffffff166108fc82346106029190610df4565b9081150290604051600060405180830381858888f1935050505015801561062d573d6000803e3d6000fd5b505050505050565b6000604051905090565b600080fd5b6000819050919050565b61065781610644565b811461066257600080fd5b50565b6000813590506106748161064e565b92915050565b6000602082840312156106905761068f61063f565b5b600061069e84828501610665565b91505092915050565b600073ffffffffffffffffffffffffffffffffffffffff82169050919050565b60006106d2826106a7565b9050919050565b6106e2816106c7565b81146106ed57600080fd5b50565b6000813590506106ff816106d9565b92915050565b6000806040838503121561071c5761071b61063f565b5b600061072a858286016106f0565b925050602061073b85828601610665565b9150509250929050565b600082825260208201905092915050565b7f42616c616e6365206973206e6f7420656e6f7567682e00000000000000000000600082015250565b600061078c601683610745565b915061079782610756565b602082019050919050565b600060208201905081810360008301526107bb8161077f565b9050919050565b7f55534443207072696365206d75737420626520626967676572207468616e203060008201527f2e00000000000000000000000000000000000000000000000000000000000000602082015250565b600061081e602183610745565b9150610829826107c2565b604082019050919050565b6000602082019050818103600083015261084d81610811565b9050919050565b600061085f826106a7565b9050919050565b61086f81610854565b82525050565b600060208201905061088a6000830184610866565b92915050565b60008151905061089f8161064e565b92915050565b6000602082840312156108bb576108ba61063f565b5b60006108c984828501610890565b91505092915050565b7f55534443207072696365206d75737420626520646966666572656e742074686160008201527f6e2063757272656e74206f6e652e000000000000000000000000000000000000602082015250565b600061092e602e83610745565b9150610939826108d2565b604082019050919050565b6000602082019050818103600083015261095d81610921565b9050919050565b61096d81610644565b82525050565b60006040820190506109886000830185610866565b6109956020830184610964565b9392505050565b6000819050919050565b60006109c16109bc6109b7846106a7565b61099c565b6106a7565b9050919050565b60006109d3826109a6565b9050919050565b60006109e5826109c8565b9050919050565b6109f5816109da565b82525050565b6000602082019050610a1060008301846109ec565b92915050565b7f41646472657373206973206e6f7420616363657074696e67207375627363726960008201527f7074696f6e732e00000000000000000000000000000000000000000000000000602082015250565b6000610a72602783610745565b9150610a7d82610a16565b604082019050919050565b60006020820190508181036000830152610aa181610a65565b9050919050565b6000604082019050610abd60008301856109ec565b610aca6020830184610866565b9392505050565b600080fd5b6000601f19601f8301169050919050565b7f4e487b7100000000000000000000000000000000000000000000000000000000600052604160045260246000fd5b610b1f82610ad6565b810181811067ffffffffffffffff82111715610b3e57610b3d610ae7565b5b80604052505050565b6000610b51610635565b9050610b5d8282610b16565b919050565b600060808284031215610b7857610b77610ad1565b5b610b826080610b47565b90506000610b9284828501610890565b6000830152506020610ba684828501610890565b6020830152506040610bba84828501610890565b6040830152506060610bce84828501610890565b60608301525092915050565b600060808284031215610bf057610bef61063f565b5b6000610bfe84828501610b62565b91505092915050565b7f546865726520697320612072756e6e696e6720737562736372697074696f6e00600082015250565b6000610c3d601f83610745565b9150610c4882610c07565b602082019050919050565b60006020820190508181036000830152610c6c81610c30565b9050919050565b6000608082019050610c8860008301876109ec565b610c956020830186610866565b610ca26040830185610964565b610caf6060830184610964565b95945050505050565b600060a082019050610ccd6000830188610866565b610cda60208301876109ec565b610ce76040830186610964565b610cf46060830185610964565b610d016080830184610964565b9695505050505050565b7f4e487b7100000000000000000000000000000000000000000000000000000000600052601160045260246000fd5b6000610d4582610644565b9150610d5083610644565b9250817fffffffffffffffffffffffffffffffffffffffffffffffffffffffffffffffff0483118215151615610d8957610d88610d0b565b5b828202905092915050565b7f4e487b7100000000000000000000000000000000000000000000000000000000600052601260045260246000fd5b6000610dce82610644565b9150610dd983610644565b925082610de957610de8610d94565b5b828204905092915050565b6000610dff82610644565b9150610e0a83610644565b925082821015610e1d57610e1c610d0b565b5b82820390509291505056fea2646970667358221220d8acd0a279c89de2ca4ff465779a511de8608d3a13fd20fa131983d2606f85f764736f6c634300080b0033",
  "immutableReferences": {},
  "source": "// SPDX-License-Identifier: MIT\npragma solidity ^0.8.7;\n\nimport \"./SubscriptionsStorage.sol\";\nimport \"./PlansStorage.sol\";\n\ncontract SubscriptionModel {\n\n  // VARIABLES\n  uint TLPERCENTAGE = 40;\n  address tlAddress = 0x71398cAD63b47Db2E2b00b68a709b64DF98E5A29;\n  address payable tlWallet = payable(tlAddress);\n\n  // EVENTS\n  event ChangePlan(\n    address sender,\n    uint value\n  );\n\n  event Subscribe(\n    address sender,\n    address to,\n    uint createdat,\n    uint _days,\n    uint amount\n  );\n\n  // CONSTRUCTOR\n  SubscriptionsStorage iSub;\n  PlansStorage iPlans;\n  constructor(\n    address _subscriptionStorageAddress,\n    address _planStorageAddress) {\n    iSub = SubscriptionsStorage(_subscriptionStorageAddress);\n    iPlans = PlansStorage(_planStorageAddress);\n  }\n    \n  // TRANSACTIONS\n  function changePlan(uint _price) public {\n    require(\n      msg.sender.balance > 0,\n      \"Balance is not enough.\"\n    );\n    require(\n      _price > 0, \n      \"USDC price must be bigger than 0.\"\n    );\n    require(\n      _price != iPlans.getPlanByAddress(msg.sender), \n      \"USDC price must be different than current one.\"\n    );\n    iPlans.addPlan(msg.sender, _price);\n    emit ChangePlan(\n      msg.sender,\n      _price\n    );\n  }\n\n  function subscribe(\n    address payable _to, \n    uint _days) public payable {\n    uint currentTimestamp = block.timestamp;\n    uint plan = iPlans.getPlanByAddress(_to);\n    require(\n      plan > 0,\n      \"Address is not accepting subscriptions.\"\n    );\n    require(\n      iSub.getSubscription(\n        _to,\n        msg.sender\n      ).Endedat < currentTimestamp,\n      \"There is a running subscription\"\n    );\n    iSub.addSubscription(\n      _to,\n      msg.sender,\n      plan,\n      _days\n    );\n    emit Subscribe(\n      msg.sender,\n      _to,\n      currentTimestamp,\n      _days,\n      plan\n    );\n    uint valueTL = msg.value * 40 / 100;\n    tlWallet.transfer(valueTL);\n    _to.transfer(msg.value - valueTL);\n  }\n}\n",
  "sourcePath": "/home/dolphin/Code/TradingLab/Contracts/contracts/SubscriptionModel.sol",
  "compiler": {
    "name": "solc",
    "version": "0.8.11+commit.d7f03943.Emscripten.clang"
  },
  "schemaVersion": "3.4.4",
  "updatedAt": "2022-01-18T15:12:15.376Z",
  "networkType": "ethereum",
  "devdoc": {
    "kind": "dev",
    "methods": {},
    "version": 1
  },
  "userdoc": {
    "kind": "user",
    "methods": {},
    "version": 1
  }
}