{
  "contractName": "Subscription",
  "abi": [
    {
      "anonymous": false,
      "inputs": [
        {
          "indexed": false,
          "internalType": "address",
          "name": "sender",
          "type": "address"
        },
        {
          "indexed": false,
          "internalType": "uint256",
          "name": "value",
          "type": "uint256"
        }
      ],
      "name": "ChangePlan",
      "type": "event"
    },
    {
      "inputs": [
        {
          "internalType": "address",
          "name": "",
          "type": "address"
        }
      ],
      "name": "plans",
      "outputs": [
        {
          "internalType": "uint256",
          "name": "",
          "type": "uint256"
        }
      ],
      "stateMutability": "view",
      "type": "function",
      "constant": true
    },
    {
      "inputs": [
        {
          "internalType": "uint256",
          "name": "usdc_monthly_price",
          "type": "uint256"
        }
      ],
      "name": "changePlan",
      "outputs": [],
      "stateMutability": "nonpayable",
      "type": "function"
    },
    {
      "inputs": [],
      "name": "getPlan",
      "outputs": [
        {
          "internalType": "uint256",
          "name": "",
          "type": "uint256"
        }
      ],
      "stateMutability": "view",
      "type": "function",
      "constant": true
    }
  ],
  "bytecode": "0x608060405234801561001057600080fd5b50610318806100206000396000f3fe608060405234801561001057600080fd5b50600436106100415760003560e01c806305d567ca1461004657806386d86d8414610062578063af0686d214610092575b600080fd5b610060600480360381019061005b91906101c8565b6100b0565b005b61007c60048036038101906100779190610253565b61012f565b604051610089919061028f565b60405180910390f35b61009a610147565b6040516100a7919061028f565b60405180910390f35b806000803373ffffffffffffffffffffffffffffffffffffffff1673ffffffffffffffffffffffffffffffffffffffff168152602001908152602001600020819055507f7f9c6471d241fdd651ec01d49cde6243143db4bbf23aac6d0573bceb342e674e33826040516101249291906102b9565b60405180910390a150565b60006020528060005260406000206000915090505481565b60008060003373ffffffffffffffffffffffffffffffffffffffff1673ffffffffffffffffffffffffffffffffffffffff16815260200190815260200160002054905090565b600080fd5b6000819050919050565b6101a581610192565b81146101b057600080fd5b50565b6000813590506101c28161019c565b92915050565b6000602082840312156101de576101dd61018d565b5b60006101ec848285016101b3565b91505092915050565b600073ffffffffffffffffffffffffffffffffffffffff82169050919050565b6000610220826101f5565b9050919050565b61023081610215565b811461023b57600080fd5b50565b60008135905061024d81610227565b92915050565b6000602082840312156102695761026861018d565b5b60006102778482850161023e565b91505092915050565b61028981610192565b82525050565b60006020820190506102a46000830184610280565b92915050565b6102b381610215565b82525050565b60006040820190506102ce60008301856102aa565b6102db6020830184610280565b939250505056fea2646970667358221220ed633856929d307dc173b784fb41e80ecc8ba3f3ce50f8e8abafcc1e54378f3664736f6c634300080a0033",
  "immutableReferences": {},
  "source": "// SPDX-License-Identifier: MIT\npragma solidity ^0.8.7;\n\ncontract Subscription {\n\n  // VARIABLES\n  mapping (address => uint) public plans;\n\n  // EVENTS\n  event ChangePlan(\n    address sender,\n    uint value\n  );\n    \n  // TRANSACTIONS\n\n  function changePlan(uint usdc_monthly_price) public {\n    plans[msg.sender] = usdc_monthly_price; \n    emit ChangePlan(msg.sender, usdc_monthly_price);\n  }\n\n  // CALLS\n  function getPlan() public view returns (uint) {\n    return plans[msg.sender];\n  }\n\n}\n\n  // mapping (address => mapping (address => SubscriptionInfo)) public subscriptions;\n  \n  // struct SubscriptionInfo {\n  //   uint starting_date;\n  //   uint ending_date;\n  //   uint plan_length;\n  //   bool is_exist;\n  // }\n\n  // function subscribe(address to, uint planLength) external payable {\n\n  //   PlanType planType = plans[to].plan_type;\n  //   uint planPrice = plans[to].plan_price;\n\n  //   uint totalCost = planPrice * planLength;\n\n  //   // CHECK IF msg.value is bigger or equal than total_cost\n\n  //   payable(to).transfer(totalCost);\n\n  //   // SAVE TRANSACTION IN DICTIONARY\n  //   uint startingDate = block.timestamp; \n  //   uint endingDate = startingDate + planLength * 1 days;\n  //   SubscriptionInfo memory subscription_info = SubscriptionInfo(startingDate, endingDate, planLength, true);\n  //   subscriptions[msg.sender][to] = subscription_info;\n  // }\n\n  // function getSubscription(address from, address to) public view returns (SubscriptionInfo memory) {\n  //   require(subscriptions[from][to].is_exist);\n  //   return subscriptions[from][to];\n  // }\n  // function isSubscribed(address from, address to) public view returns (bool) {\n  //   require(subscriptions[from][to].is_exist);\n  //   return true;\n  // }\n  // function getBalance(address owner) public view returns (uint) {\n  //   return owner.balance;\n  // }\n\n  // // TEST\n  // address payable target = payable(0x6755f7C21f9A24341B60505b9AF223a27d62e268);\n  // receive() external payable{\n  //   target.transfer(msg.value/100);\n  // }\n\n  // function testami(address to) external payable {\n  //   payable(to).transfer(msg.value);\n  // }\n\n  // uint storedData;\n\n  // function set(uint x) public {\n  //   storedData = x;\n  // }\n\n  // function get() public view returns (uint) {\n  //   return storedData;\n  // }\n\n",
  "sourcePath": "/home/dolphin/Desktop/truffle/moon/contracts/Subscription.sol",
  "compiler": {
    "name": "solc",
    "version": "0.8.10+commit.fc410830.Emscripten.clang"
  },
  "schemaVersion": "3.4.3",
  "updatedAt": "2021-11-16T10:08:26.878Z",
  "networkType": "ethereum",
  "devdoc": {
    "kind": "dev",
    "methods": {},
    "version": 1
  },
  "userdoc": {
    "kind": "user",
    "methods": {},
    "version": 1
  }
}