{
  "contractName": "Subscription",
  "abi": [
    {
      "anonymous": false,
      "inputs": [
        {
          "indexed": false,
          "internalType": "address",
          "name": "sender",
          "type": "address"
        },
        {
          "indexed": false,
          "internalType": "uint256",
          "name": "value",
          "type": "uint256"
        }
      ],
      "name": "ChangePlan",
      "type": "event"
    },
    {
      "inputs": [
        {
          "internalType": "address",
          "name": "",
          "type": "address"
        }
      ],
      "name": "plans",
      "outputs": [
        {
          "internalType": "uint256",
          "name": "",
          "type": "uint256"
        }
      ],
      "stateMutability": "view",
      "type": "function",
      "constant": true
    },
    {
      "inputs": [
        {
          "internalType": "uint256",
          "name": "usdc_monthly_price",
          "type": "uint256"
        }
      ],
      "name": "changePlan",
      "outputs": [],
      "stateMutability": "nonpayable",
      "type": "function"
    },
    {
      "inputs": [],
      "name": "getPlan",
      "outputs": [
        {
          "internalType": "uint256",
          "name": "",
          "type": "uint256"
        }
      ],
      "stateMutability": "view",
      "type": "function",
      "constant": true
    }
  ],
  "bytecode": "0x608060405234801561001057600080fd5b50610318806100206000396000f3fe608060405234801561001057600080fd5b50600436106100415760003560e01c806305d567ca1461004657806386d86d8414610062578063af0686d214610092575b600080fd5b610060600480360381019061005b91906101c8565b6100b0565b005b61007c60048036038101906100779190610253565b61012f565b604051610089919061028f565b60405180910390f35b61009a610147565b6040516100a7919061028f565b60405180910390f35b806000803373ffffffffffffffffffffffffffffffffffffffff1673ffffffffffffffffffffffffffffffffffffffff168152602001908152602001600020819055507f7f9c6471d241fdd651ec01d49cde6243143db4bbf23aac6d0573bceb342e674e33826040516101249291906102b9565b60405180910390a150565b60006020528060005260406000206000915090505481565b60008060003373ffffffffffffffffffffffffffffffffffffffff1673ffffffffffffffffffffffffffffffffffffffff16815260200190815260200160002054905090565b600080fd5b6000819050919050565b6101a581610192565b81146101b057600080fd5b50565b6000813590506101c28161019c565b92915050565b6000602082840312156101de576101dd61018d565b5b60006101ec848285016101b3565b91505092915050565b600073ffffffffffffffffffffffffffffffffffffffff82169050919050565b6000610220826101f5565b9050919050565b61023081610215565b811461023b57600080fd5b50565b60008135905061024d81610227565b92915050565b6000602082840312156102695761026861018d565b5b60006102778482850161023e565b91505092915050565b61028981610192565b82525050565b60006020820190506102a46000830184610280565b92915050565b6102b381610215565b82525050565b60006040820190506102ce60008301856102aa565b6102db6020830184610280565b939250505056fea26469706673582212204985df69ce739f2dc67695528ebc0d6f45421d9d82b6f1e7ca250f0462ea7a6664736f6c634300080b0033",
  "immutableReferences": {},
  "source": "//  Possibility to change monthly fee\n//    Needs to be bigger than 0\n//    Needs to be different than current one\n//    is it in USDC or MVRN?\n//  Possibility to subscribe\n//   get latest price is USD/MOON\n//   At the beginning subscription only monthly\n//   Check is already subscribed? \n\n// Possibility to check if addressA is subscribed with addressB\n// Possibility to get list of all subscribers of a particular address\n\n// SPDX-License-Identifier: MIT\npragma solidity ^0.8.7;\n\ncontract Subscription {\n\n  // VARIABLES\n  mapping (address => uint) public plans;\n\n  // EVENTS\n  event ChangePlan(\n    address sender,\n    uint value\n  );\n    \n  // TRANSACTIONS\n\n  /**\n    function subscribe(to address) public {\n      require ...\n      if !isAlreadySubscribed() {\n\n     }\n    }\n  */\n\n  function changePlan(uint usdc_monthly_price) public {\n    plans[msg.sender] = usdc_monthly_price; \n    emit ChangePlan(msg.sender, usdc_monthly_price);\n  }\n\n  // CALLS\n  function getPlan() public view returns (uint) {\n    return plans[msg.sender];\n  }\n\n}\n",
  "sourcePath": "/home/dolphin/Code/TradingLab/Contracts/contracts/Subscription.sol",
  "compiler": {
    "name": "solc",
    "version": "0.8.11+commit.d7f03943.Emscripten.clang"
  },
  "schemaVersion": "3.4.4",
  "updatedAt": "2021-12-27T14:23:12.671Z",
  "networkType": "ethereum",
  "devdoc": {
    "kind": "dev",
    "methods": {},
    "version": 1
  },
  "userdoc": {
    "kind": "user",
    "methods": {
      "changePlan(uint256)": {
        "notice": "function subscribe(to address) public { require ... if !isAlreadySubscribed() { } }"
      }
    },
    "version": 1
  }
}