{
  "contractName": "Subscription",
  "abi": [
    {
      "anonymous": false,
      "inputs": [
        {
          "indexed": false,
          "internalType": "address",
          "name": "sender",
          "type": "address"
        },
        {
          "indexed": false,
          "internalType": "uint256",
          "name": "value",
          "type": "uint256"
        }
      ],
      "name": "ChangePlan",
      "type": "event"
    },
    {
      "anonymous": false,
      "inputs": [
        {
          "indexed": false,
          "internalType": "address",
          "name": "sender",
          "type": "address"
        },
        {
          "indexed": false,
          "internalType": "address",
          "name": "to",
          "type": "address"
        }
      ],
      "name": "Subscribe",
      "type": "event"
    },
    {
      "inputs": [
        {
          "internalType": "address",
          "name": "",
          "type": "address"
        }
      ],
      "name": "plans",
      "outputs": [
        {
          "internalType": "uint256",
          "name": "",
          "type": "uint256"
        }
      ],
      "stateMutability": "view",
      "type": "function",
      "constant": true
    },
    {
      "inputs": [
        {
          "internalType": "address",
          "name": "",
          "type": "address"
        },
        {
          "internalType": "uint256",
          "name": "",
          "type": "uint256"
        }
      ],
      "name": "subscriptions",
      "outputs": [
        {
          "internalType": "address",
          "name": "To",
          "type": "address"
        },
        {
          "internalType": "uint256",
          "name": "Createdat",
          "type": "uint256"
        }
      ],
      "stateMutability": "view",
      "type": "function",
      "constant": true
    },
    {
      "inputs": [
        {
          "internalType": "uint256",
          "name": "usdc_monthly_price",
          "type": "uint256"
        }
      ],
      "name": "changePlan",
      "outputs": [],
      "stateMutability": "nonpayable",
      "type": "function"
    },
    {
      "inputs": [
        {
          "internalType": "address",
          "name": "to",
          "type": "address"
        }
      ],
      "name": "subscribe",
      "outputs": [],
      "stateMutability": "nonpayable",
      "type": "function"
    },
    {
      "inputs": [],
      "name": "getPlan",
      "outputs": [
        {
          "internalType": "uint256",
          "name": "",
          "type": "uint256"
        }
      ],
      "stateMutability": "view",
      "type": "function",
      "constant": true
    }
  ],
  "bytecode": "0x608060405234801561001057600080fd5b50610766806100206000396000f3fe608060405234801561001057600080fd5b50600436106100575760003560e01c806305d567ca1461005c57806341a7726a14610078578063623da3d11461009457806386d86d84146100c5578063af0686d2146100f5575b600080fd5b61007660048036038101906100719190610478565b610113565b005b610092600480360381019061008d9190610503565b610256565b005b6100ae60048036038101906100a99190610530565b61037e565b6040516100bc92919061058e565b60405180910390f35b6100df60048036038101906100da9190610503565b6103df565b6040516100ec91906105b7565b60405180910390f35b6100fd6103f7565b60405161010a91906105b7565b60405180910390f35b60008111610156576040517f08c379a000000000000000000000000000000000000000000000000000000000815260040161014d90610655565b60405180910390fd5b6000803373ffffffffffffffffffffffffffffffffffffffff1673ffffffffffffffffffffffffffffffffffffffff168152602001908152602001600020548114156101d7576040517f08c379a00000000000000000000000000000000000000000000000000000000081526004016101ce906106e7565b60405180910390fd5b806000803373ffffffffffffffffffffffffffffffffffffffff1673ffffffffffffffffffffffffffffffffffffffff168152602001908152602001600020819055507f7f9c6471d241fdd651ec01d49cde6243143db4bbf23aac6d0573bceb342e674e338260405161024b92919061058e565b60405180910390a150565b600060405180604001604052808373ffffffffffffffffffffffffffffffffffffffff168152602001428152509050600160008373ffffffffffffffffffffffffffffffffffffffff1673ffffffffffffffffffffffffffffffffffffffff16815260200190815260200160002081908060018154018082558091505060019003906000526020600020906002020160009091909190915060008201518160000160006101000a81548173ffffffffffffffffffffffffffffffffffffffff021916908373ffffffffffffffffffffffffffffffffffffffff1602179055506020820151816001015550507f5ffe3cc8f1055f172e55be8d832143a6cffb4cb3a56a18bf780fd4112d4cecc73383604051610372929190610707565b60405180910390a15050565b6001602052816000526040600020818154811061039a57600080fd5b9060005260206000209060020201600091509150508060000160009054906101000a900473ffffffffffffffffffffffffffffffffffffffff16908060010154905082565b60006020528060005260406000206000915090505481565b60008060003373ffffffffffffffffffffffffffffffffffffffff1673ffffffffffffffffffffffffffffffffffffffff16815260200190815260200160002054905090565b600080fd5b6000819050919050565b61045581610442565b811461046057600080fd5b50565b6000813590506104728161044c565b92915050565b60006020828403121561048e5761048d61043d565b5b600061049c84828501610463565b91505092915050565b600073ffffffffffffffffffffffffffffffffffffffff82169050919050565b60006104d0826104a5565b9050919050565b6104e0816104c5565b81146104eb57600080fd5b50565b6000813590506104fd816104d7565b92915050565b6000602082840312156105195761051861043d565b5b6000610527848285016104ee565b91505092915050565b600080604083850312156105475761054661043d565b5b6000610555858286016104ee565b925050602061056685828601610463565b9150509250929050565b610579816104c5565b82525050565b61058881610442565b82525050565b60006040820190506105a36000830185610570565b6105b0602083018461057f565b9392505050565b60006020820190506105cc600083018461057f565b92915050565b600082825260208201905092915050565b7f55534443207072696365206d75737420626520626967676572207468616e203060008201527f2e00000000000000000000000000000000000000000000000000000000000000602082015250565b600061063f6021836105d2565b915061064a826105e3565b604082019050919050565b6000602082019050818103600083015261066e81610632565b9050919050565b7f55534443207072696365206d75737420626520646966666572656e742074686160008201527f6e2063757272656e74206f6e652e000000000000000000000000000000000000602082015250565b60006106d1602e836105d2565b91506106dc82610675565b604082019050919050565b60006020820190508181036000830152610700816106c4565b9050919050565b600060408201905061071c6000830185610570565b6107296020830184610570565b939250505056fea264697066735822122058264177f1ced9c8a771c1c9ab8e3a0bcc9573f3e5fbe259a845993cb6fcabe064736f6c634300080b0033",
  "immutableReferences": {},
  "source": "//  Possibility to subscribe\n//   get latest price is USD/MOON\n//   At the beginning subscription only monthly\n//   Check is already subscribed? \n\n// Possibility to check if addressA is subscribed with addressB\n// Possibility to get list of all subscribers of a particular address\n\n// SPDX-License-Identifier: MIT\npragma solidity ^0.8.7;\n\ncontract Subscription {\n\n  // STRUCTS\n  struct Subscriber { \n    address To;\n    uint Createdat;\n  }\n\n  // VARIABLES\n  mapping (address => uint) public plans;\n  mapping (address => Subscriber[]) public subscriptions;\n\n  // EVENTS\n  event ChangePlan(\n    address sender,\n    uint value\n  );\n\n  event Subscribe(\n    address sender,\n    address to\n  );\n    \n  // TRANSACTIONS\n  function changePlan(uint usdc_monthly_price) public {\n    require(\n      usdc_monthly_price > 0, \n      \"USDC price must be bigger than 0.\"\n    );\n    require(\n      usdc_monthly_price != plans[msg.sender], \n      \"USDC price must be different than current one.\"\n    );\n    plans[msg.sender] = usdc_monthly_price; \n    emit ChangePlan(msg.sender, usdc_monthly_price);\n  }\n\n  function subscribe(address to) public {\n    Subscriber memory subscriber = Subscriber(to, block.timestamp);\n    subscriptions[to].push(subscriber);\n    emit Subscribe(msg.sender, to);\n  }\n\n  // CALLS\n  function getPlan() public view returns (uint) {\n    return plans[msg.sender];\n  }\n\n}\n",
  "sourcePath": "/home/dolphin/Code/TradingLab/Contracts/contracts/Subscription.sol",
  "compiler": {
    "name": "solc",
    "version": "0.8.11+commit.d7f03943.Emscripten.clang"
  },
  "schemaVersion": "3.4.4",
  "updatedAt": "2022-01-02T08:49:55.212Z",
  "networkType": "ethereum",
  "devdoc": {
    "kind": "dev",
    "methods": {},
    "version": 1
  },
  "userdoc": {
    "kind": "user",
    "methods": {},
    "version": 1
  }
}