{
  "contractName": "SubscriptionModel",
  "abi": [
    {
      "anonymous": false,
      "inputs": [
        {
          "indexed": false,
          "internalType": "uint256",
          "name": "test",
          "type": "uint256"
        },
        {
          "indexed": false,
          "internalType": "uint256",
          "name": "value",
          "type": "uint256"
        }
      ],
      "name": "Buy",
      "type": "event"
    },
    {
      "anonymous": false,
      "inputs": [
        {
          "indexed": false,
          "internalType": "address",
          "name": "sender",
          "type": "address"
        },
        {
          "indexed": false,
          "internalType": "uint256",
          "name": "value",
          "type": "uint256"
        }
      ],
      "name": "ChangePlan",
      "type": "event"
    },
    {
      "anonymous": false,
      "inputs": [
        {
          "indexed": false,
          "internalType": "address",
          "name": "sender",
          "type": "address"
        },
        {
          "indexed": false,
          "internalType": "address",
          "name": "to",
          "type": "address"
        },
        {
          "indexed": false,
          "internalType": "uint256",
          "name": "createdat",
          "type": "uint256"
        },
        {
          "indexed": false,
          "internalType": "uint256",
          "name": "endedat",
          "type": "uint256"
        },
        {
          "indexed": false,
          "internalType": "uint256",
          "name": "amount",
          "type": "uint256"
        }
      ],
      "name": "Subscribe",
      "type": "event"
    },
    {
      "inputs": [
        {
          "internalType": "address",
          "name": "",
          "type": "address"
        }
      ],
      "name": "plans",
      "outputs": [
        {
          "internalType": "uint256",
          "name": "",
          "type": "uint256"
        }
      ],
      "stateMutability": "view",
      "type": "function",
      "constant": true
    },
    {
      "inputs": [
        {
          "internalType": "address",
          "name": "",
          "type": "address"
        },
        {
          "internalType": "address",
          "name": "",
          "type": "address"
        }
      ],
      "name": "subscriptions",
      "outputs": [
        {
          "internalType": "uint256",
          "name": "Createdat",
          "type": "uint256"
        },
        {
          "internalType": "uint256",
          "name": "Endedat",
          "type": "uint256"
        },
        {
          "internalType": "uint256",
          "name": "Amount",
          "type": "uint256"
        }
      ],
      "stateMutability": "view",
      "type": "function",
      "constant": true
    },
    {
      "inputs": [
        {
          "internalType": "uint256",
          "name": "usdc_monthly_price",
          "type": "uint256"
        }
      ],
      "name": "changePlan",
      "outputs": [],
      "stateMutability": "nonpayable",
      "type": "function"
    },
    {
      "inputs": [
        {
          "internalType": "address payable",
          "name": "to",
          "type": "address"
        }
      ],
      "name": "subscribe",
      "outputs": [],
      "stateMutability": "payable",
      "type": "function",
      "payable": true
    },
    {
      "inputs": [],
      "name": "getPlan",
      "outputs": [
        {
          "internalType": "uint256",
          "name": "",
          "type": "uint256"
        }
      ],
      "stateMutability": "view",
      "type": "function",
      "constant": true
    },
    {
      "inputs": [
        {
          "internalType": "address",
          "name": "to",
          "type": "address"
        }
      ],
      "name": "isSubscriber",
      "outputs": [
        {
          "internalType": "bool",
          "name": "",
          "type": "bool"
        }
      ],
      "stateMutability": "view",
      "type": "function",
      "constant": true
    },
    {
      "inputs": [
        {
          "internalType": "address",
          "name": "to",
          "type": "address"
        }
      ],
      "name": "subscriptionEndedAt",
      "outputs": [
        {
          "internalType": "uint256",
          "name": "",
          "type": "uint256"
        }
      ],
      "stateMutability": "view",
      "type": "function",
      "constant": true
    }
  ],
  "bytecode": "0x608060405234801561001057600080fd5b50610ed2806100206000396000f3fe6080604052600436106100705760003560e01c806386d86d841161004e57806386d86d84146100f9578063af0686d214610136578063c4804ef014610161578063d503007c1461019e57610070565b806305d567ca1461007557806341a7726a1461009e5780636207d31b146100ba575b600080fd5b34801561008157600080fd5b5061009c60048036038101906100979190610894565b6101db565b005b6100b860048036038101906100b3919061091f565b610378565b005b3480156100c657600080fd5b506100e160048036038101906100dc919061098a565b6106a5565b6040516100f0939291906109d9565b60405180910390f35b34801561010557600080fd5b50610120600480360381019061011b9190610a10565b6106dc565b60405161012d9190610a3d565b60405180910390f35b34801561014257600080fd5b5061014b6106f4565b6040516101589190610a3d565b60405180910390f35b34801561016d57600080fd5b5061018860048036038101906101839190610a10565b61073a565b6040516101959190610a73565b60405180910390f35b3480156101aa57600080fd5b506101c560048036038101906101c09190610a10565b6107d0565b6040516101d29190610a3d565b60405180910390f35b60003373ffffffffffffffffffffffffffffffffffffffff163111610235576040517f08c379a000000000000000000000000000000000000000000000000000000000815260040161022c90610aeb565b60405180910390fd5b60008111610278576040517f08c379a000000000000000000000000000000000000000000000000000000000815260040161026f90610b7d565b60405180910390fd5b6000803373ffffffffffffffffffffffffffffffffffffffff1673ffffffffffffffffffffffffffffffffffffffff168152602001908152602001600020548114156102f9576040517f08c379a00000000000000000000000000000000000000000000000000000000081526004016102f090610c0f565b60405180910390fd5b806000803373ffffffffffffffffffffffffffffffffffffffff1673ffffffffffffffffffffffffffffffffffffffff168152602001908152602001600020819055507f7f9c6471d241fdd651ec01d49cde6243143db4bbf23aac6d0573bceb342e674e338260405161036d929190610c3e565b60405180910390a150565b600042905060008060008473ffffffffffffffffffffffffffffffffffffffff1673ffffffffffffffffffffffffffffffffffffffff16815260200190815260200160002054116103fe576040517f08c379a00000000000000000000000000000000000000000000000000000000081526004016103f590610cd9565b60405180910390fd5b80600160008473ffffffffffffffffffffffffffffffffffffffff1673ffffffffffffffffffffffffffffffffffffffff16815260200190815260200160002060003373ffffffffffffffffffffffffffffffffffffffff1673ffffffffffffffffffffffffffffffffffffffff16815260200190815260200160002060010154106104bf576040517f08c379a00000000000000000000000000000000000000000000000000000000081526004016104b690610d45565b60405180910390fd5b600062278d00826104d09190610d94565b90506000604051806060016040528084815260200162278d00856104f49190610d94565b81526020016000808773ffffffffffffffffffffffffffffffffffffffff1673ffffffffffffffffffffffffffffffffffffffff16815260200190815260200160002054815250905080600160008673ffffffffffffffffffffffffffffffffffffffff1673ffffffffffffffffffffffffffffffffffffffff16815260200190815260200160002060003373ffffffffffffffffffffffffffffffffffffffff1673ffffffffffffffffffffffffffffffffffffffff1681526020019081526020016000206000820151816000015560208201518160010155604082015181600201559050507f5f14af16fb853f389721dd1056e8e5a771b7f2a461b5bbf2c2a8d194d2c3bf44338585856000808a73ffffffffffffffffffffffffffffffffffffffff1673ffffffffffffffffffffffffffffffffffffffff16815260200190815260200160002054604051610650959493929190610e49565b60405180910390a18373ffffffffffffffffffffffffffffffffffffffff166108fc349081150290604051600060405180830381858888f1935050505015801561069e573d6000803e3d6000fd5b5050505050565b6001602052816000526040600020602052806000526040600020600091509150508060000154908060010154908060020154905083565b60006020528060005260406000206000915090505481565b60008060003373ffffffffffffffffffffffffffffffffffffffff1673ffffffffffffffffffffffffffffffffffffffff16815260200190815260200160002054905090565b6000804290506000600160008573ffffffffffffffffffffffffffffffffffffffff1673ffffffffffffffffffffffffffffffffffffffff16815260200190815260200160002060003373ffffffffffffffffffffffffffffffffffffffff1673ffffffffffffffffffffffffffffffffffffffff16815260200190815260200160002060010154905081811192505050919050565b6000600160008373ffffffffffffffffffffffffffffffffffffffff1673ffffffffffffffffffffffffffffffffffffffff16815260200190815260200160002060003373ffffffffffffffffffffffffffffffffffffffff1673ffffffffffffffffffffffffffffffffffffffff168152602001908152602001600020600101549050919050565b600080fd5b6000819050919050565b6108718161085e565b811461087c57600080fd5b50565b60008135905061088e81610868565b92915050565b6000602082840312156108aa576108a9610859565b5b60006108b88482850161087f565b91505092915050565b600073ffffffffffffffffffffffffffffffffffffffff82169050919050565b60006108ec826108c1565b9050919050565b6108fc816108e1565b811461090757600080fd5b50565b600081359050610919816108f3565b92915050565b60006020828403121561093557610934610859565b5b60006109438482850161090a565b91505092915050565b6000610957826108c1565b9050919050565b6109678161094c565b811461097257600080fd5b50565b6000813590506109848161095e565b92915050565b600080604083850312156109a1576109a0610859565b5b60006109af85828601610975565b92505060206109c085828601610975565b9150509250929050565b6109d38161085e565b82525050565b60006060820190506109ee60008301866109ca565b6109fb60208301856109ca565b610a0860408301846109ca565b949350505050565b600060208284031215610a2657610a25610859565b5b6000610a3484828501610975565b91505092915050565b6000602082019050610a5260008301846109ca565b92915050565b60008115159050919050565b610a6d81610a58565b82525050565b6000602082019050610a886000830184610a64565b92915050565b600082825260208201905092915050565b7f42616c616e6365206973206e6f7420656e6f7567682e00000000000000000000600082015250565b6000610ad5601683610a8e565b9150610ae082610a9f565b602082019050919050565b60006020820190508181036000830152610b0481610ac8565b9050919050565b7f55534443207072696365206d75737420626520626967676572207468616e203060008201527f2e00000000000000000000000000000000000000000000000000000000000000602082015250565b6000610b67602183610a8e565b9150610b7282610b0b565b604082019050919050565b60006020820190508181036000830152610b9681610b5a565b9050919050565b7f55534443207072696365206d75737420626520646966666572656e742074686160008201527f6e2063757272656e74206f6e652e000000000000000000000000000000000000602082015250565b6000610bf9602e83610a8e565b9150610c0482610b9d565b604082019050919050565b60006020820190508181036000830152610c2881610bec565b9050919050565b610c388161094c565b82525050565b6000604082019050610c536000830185610c2f565b610c6060208301846109ca565b9392505050565b7f41646472657373206973206e6f7420616363657074696e67207375627363726960008201527f7074696f6e732e00000000000000000000000000000000000000000000000000602082015250565b6000610cc3602783610a8e565b9150610cce82610c67565b604082019050919050565b60006020820190508181036000830152610cf281610cb6565b9050919050565b7f546865726520697320612072756e6e696e6720737562736372697074696f6e00600082015250565b6000610d2f601f83610a8e565b9150610d3a82610cf9565b602082019050919050565b60006020820190508181036000830152610d5e81610d22565b9050919050565b7f4e487b7100000000000000000000000000000000000000000000000000000000600052601160045260246000fd5b6000610d9f8261085e565b9150610daa8361085e565b9250827fffffffffffffffffffffffffffffffffffffffffffffffffffffffffffffffff03821115610ddf57610dde610d65565b5b828201905092915050565b6000819050919050565b6000610e0f610e0a610e05846108c1565b610dea565b6108c1565b9050919050565b6000610e2182610df4565b9050919050565b6000610e3382610e16565b9050919050565b610e4381610e28565b82525050565b600060a082019050610e5e6000830188610c2f565b610e6b6020830187610e3a565b610e7860408301866109ca565b610e8560608301856109ca565b610e9260808301846109ca565b969550505050505056fea26469706673582212206f271b1cc2d3f09f8da21cd5d9d897d8edf9d15827530f202fe7d2bb65875e6d64736f6c634300080b0033",
  "immutableReferences": {},
  "source": "// SPDX-License-Identifier: MIT\npragma solidity ^0.8.7;\n\ncontract SubscriptionModel {\n\n  // STRUCTS\n  struct Subscription {\n    uint Createdat;\n    uint Endedat;\n    uint Amount;\n  }\n\n  // VARIABLES\n  mapping (address => uint) public plans;\n  mapping (address => mapping (address => Subscription)) public subscriptions;\n\n  // EVENTS\n  event ChangePlan(\n    address sender,\n    uint value\n  );\n\n  event Subscribe(\n    address sender,\n    address to,\n    uint createdat,\n    uint endedat,\n    uint amount\n  );\n\n  event Buy(\n    uint test,\n    uint value\n  );\n    \n  // TRANSACTIONS\n  function changePlan(uint usdc_monthly_price) public {\n    require(\n      msg.sender.balance > 0,\n      \"Balance is not enough.\"\n    );\n    require(\n      usdc_monthly_price > 0, \n      \"USDC price must be bigger than 0.\"\n    );\n    require(\n      usdc_monthly_price != plans[msg.sender], \n      \"USDC price must be different than current one.\"\n    );\n    plans[msg.sender] = usdc_monthly_price; \n    emit ChangePlan(\n      msg.sender,\n      usdc_monthly_price\n    );\n  }\n\n  function subscribe(address payable to) public payable {\n    uint currentTimestamp = block.timestamp;\n    require(\n      plans[to] > 0,\n      \"Address is not accepting subscriptions.\"\n    );\n    require(\n      subscriptions[to][msg.sender].Endedat < currentTimestamp,\n      \"There is a running subscription\"\n    );\n    uint endedat = currentTimestamp + (30 * 1 days);\n    Subscription memory subscription = Subscription({\n      Createdat: currentTimestamp,\n      Endedat: currentTimestamp + (30 * 1 days),\n      Amount: plans[to]\n    });\n    subscriptions[to][msg.sender] = subscription;\n    emit Subscribe(\n      msg.sender,\n      to,\n      currentTimestamp,\n      endedat,\n      plans[to]\n    );\n    to.transfer(msg.value);\n  }\n\n  // CALLS\n  function getPlan() public view returns (uint) {\n    return plans[msg.sender];\n  }\n\n  function isSubscriber(address to) public view returns(bool) {\n    uint currentTimestamp = block.timestamp;\n    uint endedat = subscriptions[to][msg.sender].Endedat;\n    return endedat > currentTimestamp;\n  }\n\n  function subscriptionEndedAt(address to) public view returns(uint) {\n    return subscriptions[to][msg.sender].Endedat;\n  }\n\n}\n",
  "sourcePath": "/home/dolphin/Code/TradingLab/Contracts/contracts/SubscriptionModel.sol",
  "compiler": {
    "name": "solc",
    "version": "0.8.11+commit.d7f03943.Emscripten.clang"
  },
  "schemaVersion": "3.4.4",
  "updatedAt": "2022-01-15T16:22:52.075Z",
  "networkType": "ethereum",
  "devdoc": {
    "kind": "dev",
    "methods": {},
    "version": 1
  },
  "userdoc": {
    "kind": "user",
    "methods": {},
    "version": 1
  }
}