{
  "contractName": "Subscription",
  "abi": [
    {
      "anonymous": false,
      "inputs": [
        {
          "indexed": false,
          "internalType": "address",
          "name": "sender",
          "type": "address"
        },
        {
          "indexed": false,
          "internalType": "uint256",
          "name": "value",
          "type": "uint256"
        }
      ],
      "name": "Deposit",
      "type": "event"
    },
    {
      "inputs": [
        {
          "internalType": "address",
          "name": "",
          "type": "address"
        }
      ],
      "name": "plans",
      "outputs": [
        {
          "internalType": "enum Subscription.PlanType",
          "name": "plan_type",
          "type": "uint8"
        },
        {
          "internalType": "uint256",
          "name": "plan_price",
          "type": "uint256"
        }
      ],
      "stateMutability": "view",
      "type": "function",
      "constant": true
    },
    {
      "inputs": [
        {
          "internalType": "address",
          "name": "",
          "type": "address"
        },
        {
          "internalType": "address",
          "name": "",
          "type": "address"
        }
      ],
      "name": "subscriptions",
      "outputs": [
        {
          "internalType": "uint256",
          "name": "starting_date",
          "type": "uint256"
        },
        {
          "internalType": "uint256",
          "name": "ending_date",
          "type": "uint256"
        },
        {
          "internalType": "uint256",
          "name": "plan_length",
          "type": "uint256"
        },
        {
          "internalType": "bool",
          "name": "is_exist",
          "type": "bool"
        }
      ],
      "stateMutability": "view",
      "type": "function",
      "constant": true
    },
    {
      "stateMutability": "payable",
      "type": "receive",
      "payable": true
    },
    {
      "inputs": [
        {
          "internalType": "enum Subscription.PlanType",
          "name": "plan_type",
          "type": "uint8"
        },
        {
          "internalType": "uint256",
          "name": "plan_price",
          "type": "uint256"
        }
      ],
      "name": "changePlan",
      "outputs": [],
      "stateMutability": "nonpayable",
      "type": "function"
    },
    {
      "inputs": [],
      "name": "getPlan",
      "outputs": [
        {
          "components": [
            {
              "internalType": "enum Subscription.PlanType",
              "name": "plan_type",
              "type": "uint8"
            },
            {
              "internalType": "uint256",
              "name": "plan_price",
              "type": "uint256"
            }
          ],
          "internalType": "struct Subscription.PlanInfo",
          "name": "",
          "type": "tuple"
        }
      ],
      "stateMutability": "view",
      "type": "function",
      "constant": true
    },
    {
      "inputs": [
        {
          "internalType": "address",
          "name": "from",
          "type": "address"
        },
        {
          "internalType": "address",
          "name": "to",
          "type": "address"
        }
      ],
      "name": "getSubscription",
      "outputs": [
        {
          "components": [
            {
              "internalType": "uint256",
              "name": "starting_date",
              "type": "uint256"
            },
            {
              "internalType": "uint256",
              "name": "ending_date",
              "type": "uint256"
            },
            {
              "internalType": "uint256",
              "name": "plan_length",
              "type": "uint256"
            },
            {
              "internalType": "bool",
              "name": "is_exist",
              "type": "bool"
            }
          ],
          "internalType": "struct Subscription.SubscriptionInfo",
          "name": "",
          "type": "tuple"
        }
      ],
      "stateMutability": "view",
      "type": "function",
      "constant": true
    },
    {
      "inputs": [
        {
          "internalType": "address",
          "name": "from",
          "type": "address"
        },
        {
          "internalType": "address",
          "name": "to",
          "type": "address"
        }
      ],
      "name": "isSubscribed",
      "outputs": [
        {
          "internalType": "bool",
          "name": "",
          "type": "bool"
        }
      ],
      "stateMutability": "view",
      "type": "function",
      "constant": true
    },
    {
      "inputs": [
        {
          "internalType": "address",
          "name": "owner",
          "type": "address"
        }
      ],
      "name": "getBalance",
      "outputs": [
        {
          "internalType": "uint256",
          "name": "",
          "type": "uint256"
        }
      ],
      "stateMutability": "view",
      "type": "function",
      "constant": true
    },
    {
      "inputs": [
        {
          "internalType": "address",
          "name": "to",
          "type": "address"
        }
      ],
      "name": "testami",
      "outputs": [],
      "stateMutability": "payable",
      "type": "function",
      "payable": true
    }
  ],
  "bytecode": "0x6080604052736755f7c21f9a24341b60505b9af223a27d62e268600260006101000a81548173ffffffffffffffffffffffffffffffffffffffff021916908373ffffffffffffffffffffffffffffffffffffffff16021790555034801561006557600080fd5b50610b57806100756000396000f3fe60806040526004361061007f5760003560e01c8063883d5fd91161004e578063883d5fd9146101d7578063af0686d214610200578063f6416ef61461022b578063f8b2cb4f14610268576100fb565b806357804b4a146101005780635b75dd8d1461011c5780636207d31b1461015957806386d86d8414610199576100fb565b366100fb57600260009054906101000a900473ffffffffffffffffffffffffffffffffffffffff1673ffffffffffffffffffffffffffffffffffffffff166108fc6064346100cd9190610763565b9081150290604051600060405180830381858888f193505050501580156100f8573d6000803e3d6000fd5b50005b600080fd5b61011a600480360381019061011591906107f7565b6102a5565b005b34801561012857600080fd5b50610143600480360381019061013e9190610824565b6102ef565b60405161015091906108e3565b60405180910390f35b34801561016557600080fd5b50610180600480360381019061017b9190610824565b610455565b604051610190949392919061091c565b60405180910390f35b3480156101a557600080fd5b506101c060048036038101906101bb91906107f7565b61049f565b6040516101ce9291906109d8565b60405180910390f35b3480156101e357600080fd5b506101fe60048036038101906101f99190610a52565b6104d0565b005b34801561020c57600080fd5b50610215610576565b6040516102229190610ad0565b60405180910390f35b34801561023757600080fd5b50610252600480360381019061024d9190610824565b610611565b60405161025f9190610aeb565b60405180910390f35b34801561027457600080fd5b5061028f600480360381019061028a91906107f7565b6106b3565b60405161029c9190610b06565b60405180910390f35b8073ffffffffffffffffffffffffffffffffffffffff166108fc349081150290604051600060405180830381858888f193505050501580156102eb573d6000803e3d6000fd5b5050565b6102f76106d4565b600160008473ffffffffffffffffffffffffffffffffffffffff1673ffffffffffffffffffffffffffffffffffffffff16815260200190815260200160002060008373ffffffffffffffffffffffffffffffffffffffff1673ffffffffffffffffffffffffffffffffffffffff16815260200190815260200160002060030160009054906101000a900460ff1661038d57600080fd5b600160008473ffffffffffffffffffffffffffffffffffffffff1673ffffffffffffffffffffffffffffffffffffffff16815260200190815260200160002060008373ffffffffffffffffffffffffffffffffffffffff1673ffffffffffffffffffffffffffffffffffffffff1681526020019081526020016000206040518060800160405290816000820154815260200160018201548152602001600282015481526020016003820160009054906101000a900460ff161515151581525050905092915050565b6001602052816000526040600020602052806000526040600020600091509150508060000154908060010154908060020154908060030160009054906101000a900460ff16905084565b60006020528060005260406000206000915090508060000160009054906101000a900460ff16908060010154905082565b60405180604001604052808360038111156104ee576104ed610961565b5b8152602001828152506000803373ffffffffffffffffffffffffffffffffffffffff1673ffffffffffffffffffffffffffffffffffffffff16815260200190815260200160002060008201518160000160006101000a81548160ff021916908360038111156105605761055f610961565b5b0217905550602082015181600101559050505050565b61057e6106fe565b6000803373ffffffffffffffffffffffffffffffffffffffff1673ffffffffffffffffffffffffffffffffffffffff1681526020019081526020016000206040518060400160405290816000820160009054906101000a900460ff1660038111156105ec576105eb610961565b5b60038111156105fe576105fd610961565b5b8152602001600182015481525050905090565b6000600160008473ffffffffffffffffffffffffffffffffffffffff1673ffffffffffffffffffffffffffffffffffffffff16815260200190815260200160002060008373ffffffffffffffffffffffffffffffffffffffff1673ffffffffffffffffffffffffffffffffffffffff16815260200190815260200160002060030160009054906101000a900460ff166106a957600080fd5b6001905092915050565b60008173ffffffffffffffffffffffffffffffffffffffff16319050919050565b60405180608001604052806000815260200160008152602001600081526020016000151581525090565b60405180604001604052806000600381111561071d5761071c610961565b5b8152602001600081525090565b6000819050919050565b7f4e487b7100000000000000000000000000000000000000000000000000000000600052601260045260246000fd5b600061076e8261072a565b91506107798361072a565b92508261078957610788610734565b5b828204905092915050565b600080fd5b600073ffffffffffffffffffffffffffffffffffffffff82169050919050565b60006107c482610799565b9050919050565b6107d4816107b9565b81146107df57600080fd5b50565b6000813590506107f1816107cb565b92915050565b60006020828403121561080d5761080c610794565b5b600061081b848285016107e2565b91505092915050565b6000806040838503121561083b5761083a610794565b5b6000610849858286016107e2565b925050602061085a858286016107e2565b9150509250929050565b61086d8161072a565b82525050565b60008115159050919050565b61088881610873565b82525050565b6080820160008201516108a46000850182610864565b5060208201516108b76020850182610864565b5060408201516108ca6040850182610864565b5060608201516108dd606085018261087f565b50505050565b60006080820190506108f8600083018461088e565b92915050565b6109078161072a565b82525050565b61091681610873565b82525050565b600060808201905061093160008301876108fe565b61093e60208301866108fe565b61094b60408301856108fe565b610958606083018461090d565b95945050505050565b7f4e487b7100000000000000000000000000000000000000000000000000000000600052602160045260246000fd5b600481106109a1576109a0610961565b5b50565b60008190506109b282610990565b919050565b60006109c2826109a4565b9050919050565b6109d2816109b7565b82525050565b60006040820190506109ed60008301856109c9565b6109fa60208301846108fe565b9392505050565b60048110610a0e57600080fd5b50565b600081359050610a2081610a01565b92915050565b610a2f8161072a565b8114610a3a57600080fd5b50565b600081359050610a4c81610a26565b92915050565b60008060408385031215610a6957610a68610794565b5b6000610a7785828601610a11565b9250506020610a8885828601610a3d565b9150509250929050565b610a9b816109b7565b82525050565b604082016000820151610ab76000850182610a92565b506020820151610aca6020850182610864565b50505050565b6000604082019050610ae56000830184610aa1565b92915050565b6000602082019050610b00600083018461090d565b92915050565b6000602082019050610b1b60008301846108fe565b9291505056fea2646970667358221220b1271dee4678bb5f9d1f15b38d9aa2213adc45d975ad2611d182df20556a3ae264736f6c634300080a0033",
  "immutableReferences": {},
  "source": "// SPDX-License-Identifier: MIT\npragma solidity ^0.8.7;\n\ncontract Subscription {\n\n  // VARIABLES\n  enum PlanType{ DAILY, MONTHLY, YEARLY, LIFETIME }\n\n  struct SubscriptionInfo {\n    uint starting_date;\n    uint ending_date;\n    uint plan_length;\n    bool is_exist;\n  }\n\n  struct PlanInfo {\n    PlanType plan_type; \n    uint  plan_price;\n  }\n\n  mapping (address => PlanInfo) public plans;\n  mapping (address => mapping (address => SubscriptionInfo)) public subscriptions;\n\n  // EVENTS\n  event Deposit(address sender, uint value);\n    \n  // CONSTRUCTOR\n  // constructor() public {}\n\n  // TRANSACTIONS\n\n  function changePlan(PlanType plan_type, uint plan_price) public {\n    plans[msg.sender] = PlanInfo(plan_type, plan_price); \n  }\n\n  // function subscribe(address to, uint planLength) external payable {\n\n  //   PlanType planType = plans[to].plan_type;\n  //   uint planPrice = plans[to].plan_price;\n\n  //   uint totalCost = planPrice * planLength;\n\n  //   // CHECK IF msg.value is bigger or equal than total_cost\n\n  //   payable(to).transfer(totalCost);\n\n  //   // SAVE TRANSACTION IN DICTIONARY\n  //   uint startingDate = block.timestamp; \n  //   uint endingDate = startingDate + planLength * 1 days;\n  //   SubscriptionInfo memory subscription_info = SubscriptionInfo(startingDate, endingDate, planLength, true);\n  //   subscriptions[msg.sender][to] = subscription_info;\n  // }\n\n  // CALLS\n  function getPlan() public view returns (PlanInfo memory) {\n    return plans[msg.sender];\n  }\n  function getSubscription(address from, address to) public view returns (SubscriptionInfo memory) {\n    require(subscriptions[from][to].is_exist);\n    return subscriptions[from][to];\n  }\n  function isSubscribed(address from, address to) public view returns (bool) {\n    require(subscriptions[from][to].is_exist);\n    return true;\n  }\n  function getBalance(address owner) public view returns (uint) {\n    return owner.balance;\n  }\n\n  // TEST\n  address payable target = payable(0x6755f7C21f9A24341B60505b9AF223a27d62e268);\n  receive() external payable{\n    target.transfer(msg.value/100);\n  }\n\n  function testami(address to) external payable {\n    payable(to).transfer(msg.value);\n  }\n\n}\n",
  "sourcePath": "/home/dolphin/Desktop/truffle/moon/contracts/Subscription.sol",
  "compiler": {
    "name": "solc",
    "version": "0.8.10+commit.fc410830.Emscripten.clang"
  },
  "schemaVersion": "3.4.3",
  "updatedAt": "2021-11-13T16:14:37.289Z",
  "networkType": "ethereum",
  "devdoc": {
    "kind": "dev",
    "methods": {},
    "version": 1
  },
  "userdoc": {
    "kind": "user",
    "methods": {},
    "version": 1
  }
}