{
  "contractName": "SubscriptionModel",
  "abi": [
    {
      "inputs": [
        {
          "internalType": "address",
          "name": "_planStorageAddress",
          "type": "address"
        }
      ],
      "stateMutability": "nonpayable",
      "type": "constructor"
    },
    {
      "anonymous": false,
      "inputs": [
        {
          "indexed": false,
          "internalType": "address",
          "name": "sender",
          "type": "address"
        },
        {
          "indexed": false,
          "internalType": "uint256",
          "name": "value",
          "type": "uint256"
        }
      ],
      "name": "ChangePlan",
      "type": "event"
    },
    {
      "anonymous": false,
      "inputs": [
        {
          "indexed": false,
          "internalType": "address",
          "name": "sender",
          "type": "address"
        },
        {
          "indexed": false,
          "internalType": "address",
          "name": "to",
          "type": "address"
        },
        {
          "indexed": false,
          "internalType": "uint256",
          "name": "createdat",
          "type": "uint256"
        },
        {
          "indexed": false,
          "internalType": "uint256",
          "name": "endedat",
          "type": "uint256"
        },
        {
          "indexed": false,
          "internalType": "uint256",
          "name": "amount",
          "type": "uint256"
        }
      ],
      "name": "Subscribe",
      "type": "event"
    },
    {
      "inputs": [
        {
          "internalType": "address",
          "name": "",
          "type": "address"
        },
        {
          "internalType": "address",
          "name": "",
          "type": "address"
        }
      ],
      "name": "subscriptions",
      "outputs": [
        {
          "internalType": "uint256",
          "name": "Createdat",
          "type": "uint256"
        },
        {
          "internalType": "uint256",
          "name": "Endedat",
          "type": "uint256"
        },
        {
          "internalType": "uint256",
          "name": "Amount",
          "type": "uint256"
        }
      ],
      "stateMutability": "view",
      "type": "function",
      "constant": true
    },
    {
      "inputs": [
        {
          "internalType": "uint256",
          "name": "usdc_monthly_price",
          "type": "uint256"
        }
      ],
      "name": "changePlan",
      "outputs": [],
      "stateMutability": "nonpayable",
      "type": "function"
    }
  ],
  "bytecode": "0x608060405260286000557371398cad63b47db2e2b00b68a709b64df98e5a29600160006101000a81548173ffffffffffffffffffffffffffffffffffffffff021916908373ffffffffffffffffffffffffffffffffffffffff160217905550600160009054906101000a900473ffffffffffffffffffffffffffffffffffffffff16600260006101000a81548173ffffffffffffffffffffffffffffffffffffffff021916908373ffffffffffffffffffffffffffffffffffffffff1602179055503480156100cd57600080fd5b5060405161072938038061072983398181016040528101906100ef91906101fc565b80600460006101000a81548173ffffffffffffffffffffffffffffffffffffffff021916908373ffffffffffffffffffffffffffffffffffffffff160217905550600460009054906101000a900473ffffffffffffffffffffffffffffffffffffffff16600560006101000a81548173ffffffffffffffffffffffffffffffffffffffff021916908373ffffffffffffffffffffffffffffffffffffffff16021790555050610229565b600080fd5b600073ffffffffffffffffffffffffffffffffffffffff82169050919050565b60006101c98261019e565b9050919050565b6101d9816101be565b81146101e457600080fd5b50565b6000815190506101f6816101d0565b92915050565b60006020828403121561021257610211610199565b5b6000610220848285016101e7565b91505092915050565b6104f1806102386000396000f3fe608060405234801561001057600080fd5b50600436106100365760003560e01c806305d567ca1461003b5780636207d31b14610057575b600080fd5b61005560048036038101906100509190610263565b610089565b005b610071600480360381019061006c91906102ee565b6101f1565b6040516100809392919061033d565b60405180910390f35b60003373ffffffffffffffffffffffffffffffffffffffff1631116100e3576040517f08c379a00000000000000000000000000000000000000000000000000000000081526004016100da906103d1565b60405180910390fd5b60008111610126576040517f08c379a000000000000000000000000000000000000000000000000000000000815260040161011d90610463565b60405180910390fd5b600560009054906101000a900473ffffffffffffffffffffffffffffffffffffffff1673ffffffffffffffffffffffffffffffffffffffff1663f5d82b6b33836040518363ffffffff1660e01b8152600401610183929190610492565b600060405180830381600087803b15801561019d57600080fd5b505af11580156101b1573d6000803e3d6000fd5b505050507f7f9c6471d241fdd651ec01d49cde6243143db4bbf23aac6d0573bceb342e674e33826040516101e6929190610492565b60405180910390a150565b6003602052816000526040600020602052806000526040600020600091509150508060000154908060010154908060020154905083565b600080fd5b6000819050919050565b6102408161022d565b811461024b57600080fd5b50565b60008135905061025d81610237565b92915050565b60006020828403121561027957610278610228565b5b60006102878482850161024e565b91505092915050565b600073ffffffffffffffffffffffffffffffffffffffff82169050919050565b60006102bb82610290565b9050919050565b6102cb816102b0565b81146102d657600080fd5b50565b6000813590506102e8816102c2565b92915050565b6000806040838503121561030557610304610228565b5b6000610313858286016102d9565b9250506020610324858286016102d9565b9150509250929050565b6103378161022d565b82525050565b6000606082019050610352600083018661032e565b61035f602083018561032e565b61036c604083018461032e565b949350505050565b600082825260208201905092915050565b7f42616c616e6365206973206e6f7420656e6f7567682e00000000000000000000600082015250565b60006103bb601683610374565b91506103c682610385565b602082019050919050565b600060208201905081810360008301526103ea816103ae565b9050919050565b7f55534443207072696365206d75737420626520626967676572207468616e203060008201527f2e00000000000000000000000000000000000000000000000000000000000000602082015250565b600061044d602183610374565b9150610458826103f1565b604082019050919050565b6000602082019050818103600083015261047c81610440565b9050919050565b61048c816102b0565b82525050565b60006040820190506104a76000830185610483565b6104b4602083018461032e565b939250505056fea2646970667358221220f398a1c72fe25fc451fadc25f108fd12892c1f2be02640ad386d04f099a25c8364736f6c634300080b0033",
  "immutableReferences": {},
  "source": "// SPDX-License-Identifier: MIT\npragma solidity ^0.8.7;\n\nimport \"./PlansStorage.sol\";\n\ncontract SubscriptionModel {\n\n  // STRUCTS\n  struct Subscription {\n    uint Createdat;\n    uint Endedat;\n    uint Amount;\n  }\n\n  // VARIABLES\n  uint TLPERCENTAGE = 40;\n  address tlAddress = 0x71398cAD63b47Db2E2b00b68a709b64DF98E5A29;\n  address payable tlWallet = payable(tlAddress);\n\n  // MAPS\n  mapping (\n    address => mapping (\n      address => Subscription\n  )) public subscriptions;\n\n  // EVENTS\n  event ChangePlan(\n    address sender,\n    uint value\n  );\n\n  event Subscribe(\n    address sender,\n    address to,\n    uint createdat,\n    uint endedat,\n    uint amount\n  );\n\n  // CONSTRUCTOR\n  address planStorageAddress;\n  PlansStorage instancePlansStorage;\n  constructor(address _planStorageAddress) {\n    planStorageAddress = _planStorageAddress;\n    instancePlansStorage = PlansStorage(planStorageAddress);\n  }\n    \n  // TRANSACTIONS\n  function changePlan(uint usdc_monthly_price) public {\n\n    require(\n      msg.sender.balance > 0,\n      \"Balance is not enough.\"\n    );\n    require(\n      usdc_monthly_price > 0, \n      \"USDC price must be bigger than 0.\"\n    );\n    // require(\n    //   usdc_monthly_price != plans[msg.sender], \n    //   \"USDC price must be different than current one.\"\n    // );\n    instancePlansStorage.add(msg.sender, usdc_monthly_price);\n    // plans[msg.sender] = usdc_monthly_price; \n    emit ChangePlan(\n      msg.sender,\n      usdc_monthly_price\n    );\n  }\n\n  // function subscribe(address payable to) public payable {\n  //   uint currentTimestamp = block.timestamp;\n  //   require(\n  //     plans[to] > 0,\n  //     \"Address is not accepting subscriptions.\"\n  //   );\n  //   require(\n  //     subscriptions[to][msg.sender].Endedat < currentTimestamp,\n  //     \"There is a running subscription\"\n  //   );\n  //   uint endedat = currentTimestamp + (30 * 1 days);\n  //   Subscription memory subscription = Subscription({\n  //     Createdat: currentTimestamp,\n  //     Endedat: currentTimestamp + (30 * 1 days),\n  //     Amount: plans[to]\n  //   });\n  //   subscriptions[to][msg.sender] = subscription;\n  //   emit Subscribe(\n  //     msg.sender,\n  //     to,\n  //     currentTimestamp,\n  //     endedat,\n  //     plans[to]\n  //   );\n\n  //   uint valueTL = msg.value * 40 / 100;\n  //   tlWallet.transfer(valueTL);\n  //   to.transfer(msg.value - valueTL);\n  // }\n\n  // // CALLS\n  // function getPlan() public view returns (uint) {\n  //   return plans[msg.sender];\n  // }\n\n  // function isSubscriber(address to) public view returns(bool) {\n  //   uint currentTimestamp = block.timestamp;\n  //   uint endedat = subscriptions[to][msg.sender].Endedat;\n  //   return endedat > currentTimestamp;\n  // }\n\n  // function subscriptionEndedAt(address to) public view returns(uint) {\n  //   return subscriptions[to][msg.sender].Endedat;\n  // }\n\n}\n",
  "sourcePath": "/home/dolphin/Code/TradingLab/Contracts/contracts/SubscriptionModel.sol",
  "compiler": {
    "name": "solc",
    "version": "0.8.11+commit.d7f03943.Emscripten.clang"
  },
  "schemaVersion": "3.4.4",
  "updatedAt": "2022-01-17T12:38:21.142Z",
  "networkType": "ethereum",
  "devdoc": {
    "kind": "dev",
    "methods": {},
    "version": 1
  },
  "userdoc": {
    "kind": "user",
    "methods": {},
    "version": 1
  }
}